:1000000000800020BD0100001D700000E96F0000AD
:10001000E96F0000E96F0000E96F0000E96F000080
:10002000E96F0000E96F0000E96F0000A1B3000074
:100030001D700000E96F000031B40000D96F0000AE
:100040001D7000001D7000001D7000001D7000007C
:100050001D7000001D7000001D7000001D7000006C
:100060001D7000001D7000001D7000001D7000005C
:100070001D7000001D7000001D7000001D7000004C
:100080001D7000001D7000001D7000001D7000003C
:100090001D7000001D7000001D7000001D7000002C
:1000A000C9990000D59900001D7000001D70000066
:1000B0001D7000001D7000001D7000001D7000000C
:1000C0001D7000001D7000001D7000001D700000FC
:1000D0001D7000001D7000001D7000001D700000EC
:1000E0001D7000001D7000001D7000001D700000DC
:1000F0001D700000ED6D00001D700000417C0000CF
:100100001D700000916600001D7000001D70000051
:100110001D7000001D7000001D7000001D700000AB
:100120001D7000001D7000001D7000001D7000009B
:100130001D7000001D7000001D7000001D7000008B
:100140001D7000001D7000001D7000001D7000007B
:10015000459D0000599D00006D9D0000819D00009F
:100160001D7000006D5800001D7000001D70000023
:100170001D7000001D7000001D7000001D7000004B
:100180001D7000001D7000001D7000001D7000003B
:100190001D7000001D7000001D7000001D7000002B
:1001A0001D7000001D7000001D7000001D7000001B
:1001B0001D7000001D700000BD880000514B4CF206
:1001C000205210B51A804DF628121A8000BF00BFC9
:1001D00006F032FF4C4B4FF010621A604B4A9A60A7
:1001E0004B4ADA604B4A136813F4807301BF4A49E3
:1001F0000B604FF4A8531360484B1A78110748BF9F
:100200001A78474944BF42F008021A70454B2A2227
:100210001A70454B454A8B426BD3454B454A0021EA
:1002200093426BD3444A454811460023013350F8AA
:10023000044B41F8044B6F2BF8D1414B41498020CE
:1002400003F8010B8B42FBD13F4B1A603F4B8A22D4
:100250001A70A3F5805324225A70A0221A709A793A
:100260009207FCD59A79D406FCD4394B19469A7971
:1002700002F00C02082AFAD103221A7140225A71A4
:100280008B799806FCD5324B9A795106FCD5314AC8
:10029000314911600221516020221A702C4A937951
:1002A00003F00C030C2BFAD12C4B2D4A1A6062B6CA
:1002B00007F054F8184B1B68DA0705D5294807F0F2
:1002C0003DF8294B294A1A60294B1B785B0609D552
:1002D000254C264B22689A4204D1224807F02EF87A
:1002E000002323600FF0C0FD06F0ACFE00F01AFC06
:1002F000FEE752F8040B43F8040B8CE743F8041BA9
:100300008EE700BF0E20054030800440823F04008D
:100310000100002B10D0034014D0034002D007404E
:100320001897FF1F00E007402087FF1F7C16010081
:100330001897FF1F600F00200082FF1F00000000C1
:1003400000E400E05FE400E008ED00E0005006405B
:100350000040064044800440000003010480044043
:10036000C010050000DD68501CE00340A5C3945A8E
:1003700000F00740FFFFFFFFFFFFFFFFFFFFFFFF52
:10038000FFFFFFFFFFFFFFFFFFFFFFFFFFFFFFFF7D
:10039000FFFFFFFFFFFFFFFFFFFFFFFFFFFFFFFF6D
:1003A000FFFFFFFFFFFFFFFFFFFFFFFFFFFFFFFF5D
:1003B000FFFFFFFFFFFFFFFFFFFFFFFFFFFFFFFF4D
:1003C000FFFFFFFFFFFFFFFFFFFFFFFFFFFFFFFF3D
:1003D000FFFFFFFFFFFFFFFFFFFFFFFFFFFFFFFF2D
:1003E000FFFFFFFFFFFFFFFFFFFFFFFFFFFFFFFF1D
:1003F000FFFFFFFFFFFFFFFFFFFFFFFFFFFFFFFF0D
:10040000FFFFFFFFFFFFFFFFFFFFFFFFDEF9FFFF23
:100410000348044B834202D0034B03B11847704793
:100420001897FF1F1897FF1F000000000548064996
:100430000B1AD90F01EBA301491002D0034B03B1F2
:10044000184770471897FF1F1897FF1F00000000FC
:1004500010B5064C237843B9FFF7DAFF044B13B10C
:100460000448AFF300800123237010BD1897FF1FCD
:10047000000000007416010008B5044B1BB10449CC
:100480000448AFF30080BDE80840CFE7000000005B
:100490001C97FF1F7416010070B5044608460D46F0
:1004A00010F0CEF823680246294620465B68BDE876
:1004B0007040184738B50546FFF7EEFF044628465A
:1004C00008F045F9204438BD2DE9F3410AF08EF9D2
:1004D000384E019001213078374D384FDFF80C81CC
:1004E00006F0AEFF3078002106F08AFF4FF4FA7173
:1004F00001A80AF057FA3078012106F081FF4FF485
:10050000FA7101A80AF04EFA00F0A4FA044618B3F2
:1005100000F0A6FA002301460A22284608F024F932
:1005200039462846FFF7B8FFE10703D52449284696
:10053000FFF7C0FFA20703D522492846FFF7BAFFFD
:10054000630703D520492846FFF7B4FF200703D5EA
:1005500041462846FFF7AEFFE10606D51B4928466F
:10056000FFF7A8FF1A4808F07BF8A20603D519493F
:100570002846FFF79FFF630603D517492846FFF774
:1005800099FF200603D515492846FFF793FFE1059B
:1005900003D513492846FFF78DFFA20503D511495E
:1005A0002846FFF787FF63059CD50F492846FFF7CC
:1005B00081FF97E70088FF1FF80C0020F80B01006F
:1005C0002C0A0100490A0100630A0100A60A010081
:1005D000DA0C0020C00A0100E10A0100000B010052
:1005E0001A0B01003A0B0100630B0100870A01009E
:1005F00007B500230122CDE90023044904487822ED
:1006000009F0D8FF03B05DF804FB00BF840B0100C4
:10061000C904000038B5044620F000400D460FF034
:10062000BBF9B0B9002120460FF0D4F930B129460A
:1006300020460EF009FF0446204638BD0021204622
:100640000FF0AAF90028F7D0294620460EF0FEFE4A
:10065000F1E70024F0E7FFFF10B50B4C4FF07C51A1
:10066000A4EB60040EF0FAFF21460EF0F7FF2146DE
:100670000EF0F4FF01464FF07F500EF0E5FE2146EC
:100680000EF0ECFF10BD00BFDF59375F036803F1C8
:1006900000430B60436803F100434B60836803F140
:1006A00000438B60C368CB6070472DE9F04F85B085
:1006B000C668CF68D0F808B0D1F808A04B6801929E
:1006C00004464268006803920D46096802930EF0E2
:1006D000C5FF029B039A1946804610460EF0BEFFE6
:1006E000014640460EF0B0FE5146804658460EF098
:1006F000B5FF014640460EF0A7FE3946804630461B
:100700000EF0ACFF014640460EF09EFE019B1860C5
:10071000D4F80090029BD5F80080494618460EF0A8
:100720009DFF039A0290414610460EF097FF029BF0
:10073000014618460EF08AFE3946029058460EF0E1
:100740008DFF029B014618460EF07EFE3146029058
:1007500050460EF083FF029B014618460EF076FECF
:10076000019B58606B686268029349465046039249
:100770000EF074FF039A8246114638460EF06EFF63
:10078000014650460EF062FE4146824658460EF043
:1007900065FF014650460EF059FE029B82461946FF
:1007A00030460EF05BFF014650460EF04DFE019BB9
:1007B0004946986038460EF051FF039AA9680746EB
:1007C00010460EF04BFF014638460EF03DFE029BF0
:1007D000A168054618460EF041FF014628460EF076
:1007E00035FE4146044630460EF038FF01462046AD
:1007F0000EF02CFE019BD86005B0BDE8F08F70B5FF
:1008000004460D46006809680EF028FF6968064630
:1008100060680EF023FF014630460EF017FEA9680F
:100820000646A0680EF01AFF014630460EF00EFE96
:10083000E9680646E0680EF011FF014630460EF00A
:1008400005FE70BD38B501460446FFF7D8FFFFF737
:1008500003FF0546014620680EF000FF2946206090
:1008600060680EF0FBFE29466060A0680EF0F6FEA0
:100870002946A060E0680EF0F1FEE06038BDFFFFA1
:100880002DE9F74F0446084617461D460EF038FA84
:10089000474B00220EF08CFA804689460AF086FE0D
:1008A0000EF07EFD4946064640460AF0C7FE0EF0B1
:1008B00077FD804638460EF023FA3D4B00220EF0BD
:1008C00077FA82468B460AF071FE0EF069FD5946B2
:1008D000009050460AF0B2FE0EF062FD0746284630
:1008E0000EF00EFA324B00220EF062FA82468B4670
:1008F0000AF05CFE0EF054FD5946814650460AF05F
:100900009DFE0EF04DFD0099054630460EF0A6FE08
:100910003946834640460EF0A1FE49468246584677
:100920000EF09CFE2946019050460EF097FE019A6B
:10093000014610460EF08AFD2946206058460EF00A
:100940008DFE4946834650460EF088FE01465846C5
:100950000EF07AFD0099606040460EF07FFE394649
:10096000804630460EF07AFE2946064640460EF096
:1009700075FE4946074630460EF070FE0146384681
:100980000EF064FD4946A06040460EF067FE294621
:10099000074630460EF062FE014638460EF054FD22
:1009A000E060204603B0BDE8F04FFFF74BBF00BF4B
:1009B0000000E03F08B5FFF769FEBDE808400846C3
:1009C000FFF740BF30B585B00C4615466946FFF7C6
:1009D000F1FF2A4621466846FFF767FE05B030BDA5
:1009E000F8B58768C6680446394638460EF036FEC4
:1009F0003146054630460EF031FE014628460EF0DF
:100A000025FD0EF07DF902460B460EF01BF80B4655
:100A100002460E4900200EF013F80EF0C1FC2168CA
:100A2000054630460EF01AFE6168064638460EF05E
:100A300015FE014630460EF009FD01460EF006FD9A
:100A40002946BDE8F8400AF07BBF00BF0000F03F38
:100A500005F0D4BE014B188880B270473497FF1F51
:100A6000014B1878704700BF0488FF1F014B1878AE
:100A7000704700BF0588FF1F13B50446FFF7E8FF66
:100A80008DF80700601CFFF7E3FF8DF80600A01C3F
:100A9000FFF7DEFF8DF80500E01CFFF7D9FF8DF8AA
:100AA0000400019802B010BD10B50220FFF7D0FF7E
:100AB0001B4C20700320FFF7CBFF60700420FFF772
:100AC000DBFF60600820FFF7D7FFA0600C20FFF776
:100AD000D3FFE0601020FFF7CFFF20611420FFF765
:100AE000CBFF60611820FFF7C7FFA0611C20FFF754
:100AF000C3FFE0612020FFF7BFFF20622420FFF743
:100B0000BBFF60622820FFF7B7FFA0622C20FFF731
:100B1000B3FFE0623020FFF7AFFF206310BD00BFDE
:100B20003897FF1F08B50020FFF792FF3F4B404C5E
:100B3000062894BF187006224FF0010088BF1A7073
:100B4000FFF786FF3B4B1870FFF7AEFF01210D202A
:100B500006F076FC00F0ACF801F086F902F02CFA11
:100B600003F006FC00F0FAF904F01EFD02F08AFA28
:100B700003F086FD01F0CAFA03F09AFC02F0A0FB34
:100B800000F0C2F808B90123238001F0BBF920B9B5
:100B900023889BB243F00203238002F04FFA20B96E
:100BA00023889BB243F00403238003F057FC20B951
:100BB00023889BB243F02003238001F00FFB20B970
:100BC00023889BB243F48053238002F025FC20B994
:100BD00023889BB243F40053238003F08FFC20B999
:100BE00023889BB243F04003238002F073FA20B9BC
:100BF00023889BB243F40073238000F009FA80B984
:100C000023889BB243F48073238023889BB20BB16B
:100C1000FFF7EEFC4FF47A7006F028FD09F09EFD18
:100C2000FEE704F0EBFC0028EAD0EEE70488FF1FA3
:100C30003497FF1F0588FF1F05F09EBD2DE9F04783
:100C4000194EA0B00C27B0464FF0FF336A46194644
:100C500018460AF0F9F80128F6D1009C7C433519B2
:100C6000002368681A4601A909F020FBD5F808900E
:100C700008EB0405B9F1000FE6D0D9F800A00B4C41
:100C8000002354F83A0004EBCA041A4601A909F0FB
:100C9000D9F9606820B12978002301220AF01AF9F5
:100CA000D9F80490E6E700BF7C97FF1F7098FF1FFC
:100CB00007B5064B0193042300930549054800231B
:100CC000782209F077FC03B05DF804FB7497FF1FEE
:100CD000870B01003D0C0000F0B5094D2B68132B6C
:100CE0000BDC48B1074F0C245C433E193855726049
:100CF0005A1C71702A60D8B2F0BD0020FCE700BF1A
:100D00007897FF1F7C97FF1F01207047F8B5124DA1
:100D10000C46296813291CDC104B43F8312003EBE7
:100D2000C10300225C604B1C2B600D4B0D4D1F68F6
:100D30000C26D3B2BB420CDA7343EC18EB5C834253
:100D400002F10102F5D1A06800F01AF8A0600120BC
:100D5000F8BD0020FCE700BF6C98FF1F7098FF1FD4
:100D60007897FF1F7C97FF1F044B0146186818B146
:100D7000002301220AF0AEB8704700BF7497FF1F2E
:100D800038B5044608200D4606F084F9C0E9005441
:100D900038BD0368C9B21B681847FFFF0048704799
:100DA0001099FF1F014B01221A7070470688FF1F20
:100DB000014807F0BFB900BF1C99FF1F2DE9F041A2
:100DC00086B009F013FD00243C4D00902646012119
:100DD000684609F0E7FDDFF80481162707F0A4F85C
:100DE0000028F4DD013F17F0FF0704D10121684618
:100DF00009F0D8FD162707F055F82B78C0B2042B60
:100E0000ECD8DFE803F003080C1322000F28E5D12B
:100E100001232B70E2E7C92845D10223F9E7032318
:100E2000002488F800002B702646D7E798F80020A9
:100E3000A24208D9631CDBB2214906449A420855F4
:100E4000F6B21C46CAD80423E3E786422BD198F8B1
:100E50000030142B0CD0202B27D0122B23D1194873
:100E6000174900680223002209F0ECF8164B17E03E
:100E7000134B01AA03F1100E186859689446ACE8A8
:100E80000300083373456246F6D11868CCF80000B9
:100E90000E4802230068002201A909F0D3F80C4B88
:100EA0001878FFF761FF0023B3E70A480449006898
:100EB0000223002209F0C6F8074BF1E7CD99FF1F86
:100EC000A499FF1F9C99FF1F9599FF1FA099FF1FD1
:100ED0009699FF1F9899FF1F9499FF1FCC99FF1FA8
:100EE0002DE9F34109F082FC1A4C019023785BB3A1
:100EF000DFF86480C82101A809F054FD01252846C7
:100F000003F0B2FA837C0446CBB10F2007F098F8C7
:100F1000C92007F095F8242007F092F8671E0026F4
:100F2000233417F8010F064407F08AF8A742F6B2F7
:100F3000F7D1304607F084F8404607F008FC013549
:100F4000EDB2072DDBD1D5E7642101A809F02AFD18
:100F5000CCE700BF7097FF1FF80C0020F7B5204BBF
:100F6000204F214E214D00242246142101201C70C7
:100F700009F044F8224638602021012009F03EF8AB
:100F8000224630601221012009F038F83A682860C2
:100F900014210920FFF7A0FE154B3268187020219C
:100FA0000B20FFF799FE134B2A68187012210D20B1
:100FB000FFF792FE104B1149187003252346019448
:100FC000009578220E4809F0F5FA0E4B0E490F48AD
:100FD000CDE900537822234609F0ECFA03B0F0BDC6
:100FE000CD99FF1FA099FF1F9899FF1F9C99FF1F84
:100FF0009699FF1F9499FF1F9599FF1F930B01006E
:10100000BD0D0000C899FF1F9E0B0100E10E0000FE
:10101000024B1868003818BF01207047A099FF1FC5
:1010200013B5062204466B463B21682008F06EFD8E
:101030009DF800209DF8013043EA022323809DF8AB
:1010400002209DF8033043EA022363809DF80420C8
:101050009DF8053043EA0223A38002B010BD13B50A
:10106000062204466B464321682008F04FFD9DF898
:1010700000209DF8013043EA022323809DF80220DE
:101080009DF8033043EA022363809DF804209DF815
:10109000053043EA0223A38002B010BD13B5044615
:1010A00002210C2008F006FD10F001001FD06B4655
:1010B000072203210C2008F029FD9DF806301B07AC
:1010C00017D49DF801209DF8003043EA02232380C5
:1010D0009DF803209DF8023043EA022363809DF8C7
:1010E00005209DF8043043EA0223A380012002B0CA
:1010F00010BD0020FBE7FFFF2DE9F04F97B009F08E
:1011000075FB00240990A146A046019427464FF0A4
:10111000000B02940121DFF840A3C54D09A809F096
:1011200041FCC348FFF77CFF5046FFF798FFB5F935
:1011300000000EF03FFA0DF0E3FDBE4B00220DF073
:1011400037FE00224FF07C530DF032FE0EF028F9EE
:101150000646B5F902000EF02DFA0DF0D1FDB54BA3
:1011600000220DF025FE00224FF07C530DF020FEF2
:101170000EF016F9AE4B0546B3F904000EF01AFA5C
:101180000DF0BEFDAB4B00220DF012FE00224FF021
:101190007C530DF00DFE0EF003F9294604904846ED
:1011A0000EF054F92146814630460EF04FF9049B6B
:1011B00019460EF04BF90446BAF900000EF0FAF9A0
:1011C000014640460EF042F98046BAF902000EF0A0
:1011D000F1F9014638460EF039F90746BAF904002C
:1011E0000EF0E8F9014601980EF030F93146019011
:1011F00030460EF033FA2946064628460EF02EFAFF
:10120000014630460EF022F9049B05461946184661
:101210000EF024FA014628460EF018F90AF092FB67
:10122000014602980EF012F90A23BBFBF3F503FB0B
:1012300015B50290EDB902210C2008F03BFCC20765
:1012400017D57D48FFF72AFF7B487C497C4B30F956
:10125000022B31F9026BB242B3F90060C8BF21F82A
:10126000022C01359642C8BF1A80032D03F10203F8
:10127000EDD10BF1010BBBF57A7F7FF44BAFDFF8BB
:10128000BCB1DFF8BCA1BBF90060BAF90010059150
:10129000701800EBD07040100EF08CF9BAF90220F3
:1012A000BBF90250674B04921860A81800EBD0708D
:1012B00040100EF07FF90599624B761A06EBD67650
:1012C000586070100EF076F9049AAD1A05EBD575DA
:1012D000064668100EF06EF9BAF904300546BBF9FF
:1012E0000400C01A00EBD07040100EF063F92946DC
:1012F000824630460EF0AAF851460EF0A7F8524941
:101300000EF060FA314683460EF05CFA4F4E2946E5
:10131000306058460EF056FA5146706058460EF04E
:1013200051FA4B49B06048460EF04CFA48490490D7
:1013300020460EF047FA4649059040460EF042FA24
:101340004349069038460EF03DFA4149079001980E
:101350000EF038FA3F4B3E490190012202981A7074
:101360000EF030FA044609F041FA002609904FF0D9
:101370007C57012109A809F015FB3A21682008F0E3
:1013800099FBC30740F1BF80DFF8A4A0324D50465F
:10139000FFF746FE2846FFF762FEBAF900000EF09E
:1013A00009F900F100400DF0ABFC224B00220DF0DA
:1013B000FFFC32463B460DF0FBFC0DF0F1FF83468F
:1013C0000D90BAF902000EF0F5F800F100400DF0B2
:1013D00097FC184B00220DF0EBFC32463B460DF01B
:1013E000E7FC8046049889460DF08AFC02460B46CD
:1013F000404649460DF024FB0DF0D2FF81460E9089
:10140000BAF904000EF0D6F800F100400DF078FCB7
:10141000084B00220DF0CCFC32463B460DF0C8FCD8
:10142000CDE9020105980DF06BFC02460B4615E074
:10143000FC99FF1F000030403C9AFF1F0A88FF1FE5
:101440001088FF1F249AFF1F00004040309AFF1FA2
:1014500000007A447097FF1F109AFF1FDDE9020118
:101460000DF0EEFA0DF09CFF214680460F90584695
:101470000EF0F4F821460A9048460EF0EFF82146A7
:101480000B9040460EF0EAF80C90B5F900000EF013
:1014900091F806990DF0D8FF00F100400DF030FCF6
:1014A000214B00220DF084FC32463B460DF080FCBF
:1014B0000DF076FF1090B5F902000EF07BF8079959
:1014C0000DF0C2FF0DF01CFC174B00220DF070FC5C
:1014D00032463B460DF06CFC0DF062FF1190B5F901
:1014E00004000EF067F801990DF0AEFF0DF008FC56
:1014F0000D4B00220DF05CFC32463B460DF058FCD3
:101500000DF04EFF12900948022300220AA900683C
:1015100008F098FD064B1878FFF726FC002315937A
:101520001493139325E700BF00409F40EC99FF1FE1
:10153000E899FF1F13B5002204460A210C2008F089
:10154000A3FA0A2006F092F80F220A210C2008F0D4
:101550009BFA0A2006F08AF801AB032210210C2026
:1015600008F0D4FA9DF8040080380EF023F80DF04E
:10157000C7FB224B00220DF01BFC214B00220DF07B
:1015800061FA0DF00DFF20609DF8050080380EF027
:1015900011F80DF0B5FB194B00220DF009FC184BAA
:1015A00000220DF04FFA0DF0FBFE60609DF8060082
:1015B00080380DF0FFFF0DF0A3FB104B00220DF063
:1015C000F7FB0F4B00220DF03DFA0DF0E9FE002273
:1015D000A0600A210C2008F057FA0A2006F046F80D
:1015E000084B1A780A2142F010020C2008F04CFA3D
:1015F0000A2006F03BF802B010BD00BF0000703FAB
:101600000000F03F0788FF1F08B500226B2168200B
:1016100008F03AFA642006F029F801226B216820CC
:1016200008F032FAC82006F021F803221A216820B7
:1016300008F02AFA00221921682008F025FA1B2157
:10164000682008F037FA00F0E40242F018021B218B
:10165000682008F019FA1C21682008F02BFA00F025
:10166000E70242F018021C21682008F00DFA1D2143
:10167000682008F01FFA00F0F00242F001021D217C
:10168000682008F001FA22223721682008F0FCF9CE
:1016900068200122382108F0F7F9BDE808406420ED
:1016A00005F0E4BF2DE9F04F8DB0CDE902018022B5
:1016B0006B21682008F0E8F9642005F0D7FF0122CB
:1016C0006B21682008F0E0F900226C21682008F006
:1016D000DBF9C82005F0CAFF00223821682008F095
:1016E000D3F900222321682008F0CEF900226B21D3
:1016F000682008F0C9F900222421682008F0C4F904
:1017000000226A21682008F0BFF90C226A216820B3
:1017100008F0BAF90F2005F0A9FF01221A2168206C
:1017200008F0B2F900221921682008F0ADF9002272
:101730001B21682008F0A8F900221C21682008F06D
:10174000A3F940226A21682008F09EF9782223211B
:10175000682008F099F9282005F088FF0DF1180B92
:1017600000222321682008F08FF902225B467221B3
:101770006820002608F0CAF99DF818209DF8194045
:10178000019635463746B046B146B24644EA022491
:101790000C22B4FBF2F4B2B2944239D95B460C226B
:1017A0007421682008F0B2F99DF818109DF81920EE
:1017B000019B42EA012208FA82F89DF81A109DF86E
:1017C0001B2042EA012207FA82F79DF81C109DF8BF
:1017D0001D2042EA012205FA82F59DF81E109DF8AF
:1017E0001F2042EA01220AFA82FA9DF820109DF891
:1017F000212042EA012209FA82F99DF822109DF87F
:10180000232042EA012203FA82F301930136C2E760
:1018100095FBF4F5002D9AFBF4FACCBFA5F58045B5
:1018200005F58045BAF1000F5246B8BF0AF1030230
:101830009210524299FBF4F951BAB9F1000FADF888
:1018400018104946B8BF09F1030189104942019BAC
:1018500098FBF4F849BA97FBF4F793FBF4F4002CE7
:10186000ADF81A102146B8BFE11C8910494249BAA7
:10187000ADF81C10C2F307221321682008F004F908
:101880009DF819201421682008F0FEF89DF81A2010
:101890001521682008F0F8F89DF81B201621682013
:1018A00008F0F2F89DF81C201721682008F0ECF8E9
:1018B0009DF81D201821682008F0E6F850460DF02C
:1018C00079FE5C490DF07EFF029B186048460DF0E2
:1018D00071FE58490DF076FF029B586020460DF0CE
:1018E00069FE54490DF06EFF029B02229860772139
:1018F0005B46682008F00AF9BDF8186076BA5B46C6
:1019000002227A216820B6B2099608F0FFF8BDF8E5
:10191000184064BA5B4602227D216820A4B20A9472
:1019200008F0F4F8BDF81820434B52BA1B788DF834
:10193000143092B200230B92ADF8153009A905A816
:101940004FF0010C51F804EB1EF0010F18BF03F823
:1019500000C00133032BF5D1B8F1000F4346B8BFE7
:1019600008F10703002F9DF81410A6EBE3063B4691
:10197000B8BFFB1D002DA4EBE3042B46B8BFEB1D45
:10198000A2EBE303C6F307220E4321128DF81A10CF
:101990009DF815108DF818200C4319128DF81C10A5
:1019A0009DF816108DF819600B43682077218DF88B
:1019B0001D308DF81B4008F067F89DF8192078213C
:1019C000682008F061F89DF81A207A21682008F054
:1019D0005BF89DF81B207B21682008F055F89DF8E6
:1019E0001C207D21682008F04FF89DF81D207E21E5
:1019F000682008F049F840460DF0DCFD4FF06251D8
:101A00000DF02CFE039B186038460DF0D3FD4FF00F
:101A100062510DF023FE039B586028460DF0CAFD6D
:101A20004FF062510DF01AFE039B98600DB0BDE8B7
:101A3000F08F00BF00000343AF0B0100FFFFFFFF6B
:101A40002DE9F04F002499B02246192180466820E4
:101A5000CDE90644CDE90844CDE90A44CDE90C447A
:101A6000CDE90E44CDE910440494ADF8144008F0DB
:101A70000BF802221A21682008F006F822461B21E2
:101A8000682008F001F802221D21682007F0FCFF01
:101A900022461C21682007F0F7FFC82504AB062268
:101AA0003B21682008F032F89DF810209DF8113095
:101AB00043EA0223099A02FA83F309939DF812205C
:101AC0009DF8133043EA02230A9A02FA83F30A9339
:101AD0009DF814209DF8153043EA02230B9A02FA70
:101AE00083F30B93062204AB4321682008F00EF821
:101AF0009DF810209DF8113043EA0223069A02FA5D
:101B000083F306939DF812209DF8133043EA0223D5
:101B1000079A02FA83F307939DF814209DF8153075
:101B200043EA0223089A013D02FA83F30893B5D1F0
:101B300009AC06AB00932146C8200135032D0A6885
:101B400092FBF0F241F8042B1A6892FBF0F243F892
:101B5000042BF2D1E0221C21682007F095FFE0223F
:101B60001B21682007F090FF192005F07FFDC82693
:101B700004AB06223B21682007F0C8FF9DF8102027
:101B80009DF8113043EA02230C9A02FA83F30C9376
:101B90009DF812209DF8133043EA02230D9A02FAB1
:101BA00083F30D939DF814209DF8153043EA02232A
:101BB0000E9A02FA83F30E93062204AB43216820A7
:101BC00007F0A4FF9DF810209DF8113043EA02238E
:101BD0000F9A02FA83F30F939DF812209DF81330A9
:101BE00043EA0223109A02FA83F310939DF814201B
:101BF0009DF8153043EA0223119A013E02FA83F35D
:101C00001193B5D10CAD0FAB01932946C820013615
:101C1000032E0A6892FBF0F241F8042B1A6892FB3B
:101C2000F0F243F8042BF2D100221C21682007F0C7
:101C30002BFF00221B21682007F026FF192005F04A
:101C400015FD0D21682007F035FF0E210290682058
:101C500007F030FF0F218346682007F02BFF00219B
:101C60008246682007F026FF01218146682007F0A0
:101C700021FF02210746682007F01CFF029B064651
:101C800018460DF093FC0DF03BF8754B00220CF05C
:101C9000D7FE02460B466EA1D1E9000109F092FD84
:101CA0006DA3D3E900230DF083F80DF079FB1290BA
:101CB00058460DF07BFC0DF023F8694BDFF8A4B11A
:101CC00000220CF0BDFE02460B4661A1D1E90001E5
:101CD00009F078FD60A3D3E900230DF069F80DF059
:101CE0005FFB139050460DF061FC0DF009F85C4B62
:101CF00000220CF0A5FE02460B4655A1D1E90001D9
:101D000009F060FD54A3D3E900230DF051F80DF064
:101D100047FB149048460DF049FC0CF0F1FF504B86
:101D200000220CF08DFE02460B4649A1D1E90001CC
:101D300009F048FD48A3D3E900230DF039F80DF070
:101D40002FFB159038460DF031FC0CF0D9FF444BB9
:101D500000220CF075FE02460B463DA1D1E90001C0
:101D600009F030FD3CA3D3E900230DF021F80DF07C
:101D700017FB169030460DF019FC0CF0C1FF384BE4
:101D800000220CF05DFE02460B4631A1D1E90001B4
:101D900009F018FD30A3D3E900230DF009F80DF088
:101DA000FFFA08F10803179012AFA8F10406039395
:101DB0004FF0000A54F8043B55F8040B57F8042B75
:101DC0000292C01A0DF0F6FB0CF09AFF52465B46E9
:101DD0000CF0EEFF8046029889460CF091FF024617
:101DE0000B46404649460DF00DF952465B460CF055
:101DF00027FE0DF0D5FA019B009A46F8040F53F820
:101E0000040B019352F8043B0092C01A0DF0D2FB70
:101E10000CF076FF52465B460CF0CAFF8046B8686D
:101E200089460CF06DFF02460B46404649460DF0D0
:101E3000E9F85B4652460CF003FE0DF0B1FA039B45
:101E4000F060B342B6D119B0BDE8F08FAFF30080B7
:101E5000295C8FC2F528F03F000000000078A44004
:101E60000000F03F00005940F0B51D4D6E7B2F691A
:101E700087B0304606F09FFE1A4B00240122CDE9C0
:101E80000332CDE901042346224631463846009408
:101E900007F004F8144A1549286906F031FF752146
:101EA000682007F007FE124B187040B1032300931F
:101EB0001049114801942346782208F07BFB002248
:101EC0003021012008F09AF80C4B024618603021AE
:101ED0000120FEF701FF0A4B187007B0F0BD00BFEC
:101EE000200D0020A0860100C0270900006CDC0244
:101EF0000888FF1FAB0B0100F9100000EC99FF1FD1
:101F0000E899FF1F08B50C4B1B780BB9002008BDE2
:101F10000A48FFF795FD0A490A48FFF7C3FBFFF798
:101F200073FB00210C2007F0C5FD0028EED0064809
:101F3000FFF700FB0120EAE70888FF1FD099FF1F89
:101F4000F099FF1F049AFF1F189AFF1F01480A21EA
:101F500006F0B2BC429AFF1F80B5534C8AB004F120
:101F60001A0526464FF0FF336A461946184608F010
:101F70006BFF0128F6D1009B062B7AD0072BF1D1FD
:101F80004A48002300681A4601A908F08FF9012881
:101F90000746E7D19DF81680FEF762FD804544486C
:101FA0000ED1444A9DF80E309DF8171053701170F1
:101FB0000278012AD6D1404A11780B431370D1E739
:101FC0009DF81620013AD3B202788DF81630012A16
:101FD00006D0022A1FD001A9002002F04FFAC1E763
:101FE0009DF81910012908D00229F4D1334902FAC9
:101FF00003F30A7813430B7005E0304A01FA03F348
:1020000011780B4313709DF81830002BE3D12C4B43
:1020100000221A70DFE79DF8191002290BD003295E
:102020001AD00129D7D12549012202FA03F30A78EF
:1020300013430B70CFE7214907FA03F30A785BB229
:102040001A43D2B20A70BDF80E109142C3D11D4A94
:1020500011780B431370BEE71B4B01701A70174ABF
:1020600000231370134A5370134A1370144B1F70DC
:10207000B1E716480C49006800231A4608F016F923
:1020800001287FF46FAFA37C002B3FF46BAF013BC3
:10209000A374FEF783FE03682B6043686B600389BB
:1020A0002B81314698E700BF5C9AFF1F489AFF1FBB
:1020B000589AFF1F549AFF1F809AFF1F819AFF1F93
:1020C000839AFF1F829AFF1F849AFF1F449AFF1F63
:1020D000014B1878704700BF839AFF1F014B187897
:1020E000704700BF589AFF1F014B1870704700BF20
:1020F000839AFF1F014B1878704700BF819AFF1F1A
:10210000014B1878704700BF829AFF1F244BF7B528
:1021100001251D70234B244E00241C70FEF7A0FCEB
:102120003070FEF79DFC214BB4701C70204BF47096
:102130001C70204B20491C70204B01381C6005FA94
:1021400000F01F4B707003271E4E1C707822009702
:10215000234601941C4808F02DFA2346CDE9007669
:102160001A491B481B4F782208F024FA22462421E2
:10217000284607F043FF224638602421284607F00E
:102180003DFF154B3168186002460720FEF7BEFD83
:102190003A683168062003B0BDE8F040FEF7B6BDEE
:1021A000589AFF1F839AFF1F549AFF1F849AFF1F9C
:1021B000819AFF1F829AFF1FB20B0100509AFF1FE6
:1021C000AEA1FF1F4C9AFF1F2D230000BC0B010086
:1021D000591F0000449AFF1F489AFF1F01207047B3
:1021E00010B588B0B0F9003000930446037AB0F916
:1021F00002008DF814300DF0DDF90390B4F90600FB
:102200000DF0D8F90290B4F904000DF0D3F9637A17
:102210000490003B18BF01238DF81530E368069346
:1022200068462369079301F0FDF808B010BDFFFF71
:1022300070B5354A1378022B0DD0032B32D0012B09
:1022400019D101F01BF9B0B1304B0022BDE870404C
:102250001A7002F059B92E4B2E4C197823782E485B
:1022600099422E4908D1032313702D4A137000237D
:10227000237043700B7070BD45780B789D42FAD087
:10228000284D2B780133DBB2022B2B70F3D90323BB
:102290001370234A1370244A0023237043700B7079
:1022A0001370E8E71E4D95F90030002B25DC012462
:1022B0001470FEF7D5FB174B1B4E1A78013804FA41
:1022C00000F010431870124B00221A7002F01CF933
:1022D000204602F0C9F8837C1BB1027D33789A4214
:1022E0000FD10134E4B2072CF2D101230E4A13704E
:1022F000FEF758FD054B00221A702B78013B2B701E
:10230000B9E70023F2E700BF589AFF1FAEA1FF1FF5
:10231000829AFF1F819AFF1F549AFF1F809AFF1F06
:10232000849AFF1F599AFF1F839AFF1F07B508F071
:102330005DFA0F4C0190237823B90A2101A808F017
:1023400031FBF8E7FEF78CFB431E01209840094B58
:10235000094C187002F0D8F8FEF724FD236880219C
:10236000013301A8236008F01DFBFFF761FFF5E7CB
:102370007097FF1F819AFF1F509AFF1F2DE9F04FA2
:10238000154601FB01F287B09700064638460C4619
:10239000059204F07FFE0490384604F07BFE8346ED
:1023A000384604F077FE05FB04F84FEA88088246B9
:1023B000404604F06FFE05FB05F94FEA89090090DD
:1023C000484604F067FE0190484604F063FE029020
:1023D000404604F05FFE0390404604F05BFE8146F9
:1023E000A00004F057FE8046384604F053FE059ADC
:1023F00001460746002005F081FE049B00214FF0B6
:102400007E508AB2A24201F1010104DA04FB0222E9
:1024100047F82200F5E7A4B22246214606F1500013
:1024200004F09EF95B462246214606F16800ADB2F3
:1024300004F096F953462246214606F1180004F0AE
:102440008FF9009B2A46214606F1700004F088F9B6
:10245000019B2A46294606F1780004F081F9029B87
:102460002A46294606F1800004F07AF9039B2A46A1
:10247000214606F1380004F073F94B462A462146FE
:1024800006F1480004F06CF94346294606F1600065
:10249000012204F065F93B462246214606F18800F8
:1024A00007B0BDE8F04F04F05BB9F8B5044600F1A1
:1024B000180700F11005394604F16806284605F0B2
:1024C00077FC324604F12001284604F1500504F05F
:1024D00059FE2A463946304604F054FE2A4604F195
:1024E00028012846BDE8F84005F081BC2DE9F047F9
:1024F000044600F1480500F14007294604F1700840
:10250000384604F1500905F053FC2946424604F1CF
:102510008005484604F036FE2A464146384604F017
:1025200031FE04F1780A2A4604F13001284605F00C
:102530005EFC5146284603F02DFD05302AD004F1FB
:10254000380604F1600532465146404604F01AFE52
:102550002A4604F15801304604F014FE294604F1DD
:10256000080204F16805204605F041FC2A46394678
:10257000304604F007FE2A46294604F1880005F09B
:10258000DFFB04F120024946284604F0FBFD012050
:10259000BDE8F0870020FBE77047FFFF38B50C4C23
:1025A00000252078012104F04BFF6078012104F020
:1025B00047FF2078002104F023FF013560780021D7
:1025C00004F01EFF042D04F10304EAD138BD00BF5E
:1025D0001688FF1F013810B50C46032824D8DFE801
:1025E00000F00A020F192078002104F063FF6078E0
:1025F000002104F05FFF2078002104F001FF03E0D8
:102600008978207804F056FF60780021BDE81040FA
:1026100004F0F6BE2078002104F0F2FEA178607884
:10262000BDE8104004F046BF10BDFFFF013808B5FB
:1026300005285CD8DFE800F04C03152433412C4911
:102640000220FFF7C7FF2B490220FFF7C3FF2A49EB
:102650000220FFF7BFFF29490220BDE80840FFF72D
:10266000B9BF23490320FFF7B5FF22490320FFF735
:10267000B1FF21490320FFF7ADFF20490320ECE71C
:102680001B490420FFF7A6FF1A490420FFF7A2FF09
:1026900019490420FFF79EFF18490420DDE714497B
:1026A0000420FFF797FF15490320FFF793FF124916
:1026B0000420FFF78FFF0F49E0E70F490320FFF7E2
:1026C00089FF0C490420FFF785FF09490320E1E752
:1026D00007490120FFF77EFF06490120FFF77AFF37
:1026E00005490120FFF776FF04490120B5E708BD41
:1026F0001688FF1F1988FF1F1C88FF1F1F88FF1FD8
:102700002DE9F84319461D4606460CF09FFE294662
:10271000044630460CF098FE0021054620460DF098
:102720003BF90026DDF820809DF824900A9F314671
:10273000002843D128460DF02FF92449002836D12E
:1027400020460DF047F900B1204C204928460DF0F5
:1027500041F900B11D4D28460DF082F91C4DC0B263
:10276000A870E87220460DF07BF90B9BC0B2B9F15E
:10277000040F687128721E6006D1164920460CF0BD
:102780006DFF3860BDE8F883B9F1030F01D112493C
:10279000F4E7B9F1060F02D1C7F80080F2E7B9F10A
:1027A000050F01D03E60EDE708F10048F4E7204650
:1027B0000DF010F900B1054C3546CCE728460DF078
:1027C000EBF834460028C0D0F6E700BF00007F4396
:1027D0001688FF1F713D8A3F713D8ABF2DE9F04F7A
:1027E000624D634C2968DFF8BCB1DFF8BC8189B069
:1027F00091469A462268DBF8003000930846019221
:102800000CF02CFF019AD8F80070114606461046CD
:102810000CF024FF014630460CF018FE009B0646E3
:10282000194618460CF01AFF014630460CF00EFE11
:102830003946064638460CF011FF014630460CF08A
:1028400005FEFDF709FF296807460CF007FF216820
:102850002860064638460CF001FFDBF800102060C7
:10286000054638460CF0FAFED8F80010CBF8000008
:10287000044638460CF0F2FE31460746C8F8000020
:1028800030460CF0EBFE3B4B834618602946304641
:102890000CF0E4FE384B2146186030460CF0DEFEAA
:1028A000364B3946186030460CF0D8FE344B06469D
:1028B0001860294628460CF0D1FE324A009010607C
:1028C000214628460CF0CAFE2F4A80461060394641
:1028D00028460CF0C3FE2D4A2146106020460CF01D
:1028E000BDFE2B4A05461060394620460CF0B6FE68
:1028F000284A3946106038460CF0B0FE009B264A44
:1029000019461060044658460CF0A0FD29460CF00C
:102910009BFD21460CF098FD4146044630460CF0E4
:1029200095FD01460CF092FD214609F009F81B4C7B
:10293000069021465046FDF76DFE21460290129802
:10294000FDF768FE214603901398FDF763FE04909F
:102950001348069B07930022022302A90068CDF8C2
:10296000149007F06FFB09B0BDE8F08F2888FF1FB7
:10297000A49AFF1F2C88FF1F989AFF1F9C9AFF1F85
:10298000A09AFF1FA89AFF1FAC9AFF1FB09AFF1FC3
:10299000B89AFF1FBC9AFF1FC49AFF1F0AD7233D96
:1029A000889AFF1FB49AFF1FC09AFF1F1FB5174BCD
:1029B00017494FF07E521A6000230B6015490B60D7
:1029C00015490B6015490A60154A1360154A1360D2
:1029D000154A1360154A1360154A1360154A1360AF
:1029E000154A1360154A1360154A194613601846B4
:1029F00003930293019300931A46FFF7EFFE114BE6
:102A0000187805B05DF804EBFEF7AEB92888FF1F13
:102A1000A49AFF1FB49AFF1FC09AFF1F2C88FF1FA4
:102A2000989AFF1F9C9AFF1FA09AFF1FA89AFF1F4A
:102A3000AC9AFF1FB09AFF1FB89AFF1FBC9AFF1FE6
:102A4000C49AFF1F859AFF1F2DE9F04FA3B04FF0E6
:102A5000FF3315AA1946184608F0F6F90128F6D1F1
:102A60000023A948219320931F931E931D931C9329
:102A7000189317931693002300681A4616A907F0B7
:102A800015FC012848D11C980CF03AF99CA3D3E915
:102A900000230CF08DF90CF083FC1C901D980CF0B9
:102AA0002FF997A3D3E900230CF082F90CF078FCFE
:102AB0001D901E980CF024F991A3D3E900230CF08B
:102AC00077F90CF06DFC16991E9008460CF0C6FDC7
:102AD0001799044608460CF0C1FD014620460CF04B
:102AE000B5FC1899044608460CF0B8FD014620468E
:102AF0000CF0ACFCFDF7B0FD0446014616980CF056
:102B0000ADFD2146169017980CF0A8FD21461790B0
:102B100018980CF0A3FD1890169B0493179B05932F
:102B2000189B0693794BDDF870801D68784BDDF8B3
:102B300074901C68774BDDF878A01E68414605F15B
:102B400000400CF08BFD2146074648460CF086FD00
:102B5000014638460CF078FC3146074650460CF0EA
:102B60007DFD014638460CF06FFC4FF07C510CF0B7
:102B700075FD694B07901F68404639460CF06EFDA5
:102B80002146834650460CF069FD014658460CF03C
:102B90005DFC3146834648460CF060FD01465846D0
:102BA0000CF052FC4FF07C510CF058FD3946089067
:102BB00048460CF053FD2946834650460CF04EFD26
:102BC000014658460CF040FC3146834640460CF026
:102BD00045FD014658460CF039FC4FF07C510CF095
:102BE0003DFD3946099050460CF038FD2946824695
:102BF00048460CF033FD014650460CF027FC2146B8
:102C0000814640460CF02AFD014648460CF01CFC6B
:102C10004FF07C510CF022FD00210A9004980CF03A
:102C2000B1FE58B1059800210CF0ACFE30B1069809
:102C300000210CF0A7FE002840F079813946384683
:102C40000CF004FC29460C9028460CF0FFFB2146B2
:102C50000D9020460CF0FAFB31460E9030460CF0F9
:102C6000F5FB4FF081410F9038460CF0F7FC4FF028
:102C70008141824628460CF0F1FC4FF08141074625
:102C800020460CF0EBFC4FF08241834628460CF0C6
:102C9000E5FC4FF08241109020460CF0DFFC1F4B0A
:102CA0001190D3F800801E4B41465046D3F8009057
:102CB0000CF0D4FC0E990B9004980CF0CFFC0B9BFD
:102CC000014618460CF0C2FB49460B9050460CF0EA
:102CD000C5FC0B9B014618460CF0B8FB0D998246CB
:102CE00005980CF0BBFC014650460CF0ADFB0D4BBB
:102CF00013901B680B930C4B4FF08141186815E043
:102D0000399D52A246DF913F8C9AFF1FA49AFF1F64
:102D1000B49AFF1FC09AFF1F2888FF1FB89AFF1F91
:102D2000A89AFF1FC49AFF1F2C88FF1F0CF096FC67
:102D30000B99824638460CF091FC0F99129004983A
:102D40000CF08CFC129B014618460CF07DFB5146A2
:102D5000129028460CF082FC129B014618460CF09B
:102D600075FB0C99054605980CF078FC0146284641
:102D70000CF06AFB39460CF067FB49460546109893
:102D80000CF06CFC014628460CF060FB4146054601
:102D900010980CF063FC014628460CF057FB3946AE
:102DA000054606980CF05AFC014628460CF04EFBEE
:102DB0005146054620460CF051FC0C9904460498F7
:102DC0000CF04CFC014620460CF040FB0B990446ED
:102DD00058460CF043FC014620460CF037FB0F9997
:102DE000044605980CF03AFC014620460CF02CFBFA
:102DF00059460CF029FB4946044611980CF02EFC6C
:102E0000014620460CF022FB4146044611980CF086
:102E100025FC014620460CF019FB5946044606984D
:102E20000CF01CFC014620460CF010FB4FF08141D9
:102E3000044648460CF012FC31460CF00FFC0D998C
:102E4000074604980CF00AFC014638460CF0FCFAE0
:102E50004FF08141074640460CF000FC31460CF033
:102E6000FDFB014638460CF0F1FA0E99064605982E
:102E70000CF0F4FB014630460CF0E6FA139A04928B
:102E80001146074610460CF0E9FB2946064628463F
:102E90000CF0E4FB014630460CF0D8FA2146064619
:102EA00020460CF0DBFB014630460CF0CFFA3946E9
:102EB000064638460CF0D2FB014630460CF0C6FA06
:102EC000FDF7CAFB354B049AD3F80080064601464D
:102ED00010460CF0C3FB41460CF0C0FB01460798BE
:102EE0000CF0B2FA3146079028460CF0B7FB414689
:102EF0000CF0B4FB014608980CF0A6FA3146089095
:102F000020460CF0ABFB41460CF0A8FB01460998AB
:102F10000CF09AFA3146099038460CF09FFB414676
:102F20000CF09CFB01460A980CF08EFA0A901C4C9F
:102F300007981C490CF092FB21680CF087FA20607E
:102F4000194C089817490CF089FB21680CF07EFA9F
:102F50002060164C099813490CF080FB21680CF096
:102F600075FA2060124C0A980E490CF077FB216824
:102F70000CF06CFA209B206003931F9B02931B9B19
:102F800001931A9B1C9800931E9A199B1D99FFF799
:102F900025FC084B1878FDF7E7FE58E52488FF1F4D
:102FA0002888FF1F4B59863AA49AFF1FB49AFF1F27
:102FB000C09AFF1F859AFF1F2DE9F341DFF8748047
:102FC00098F800504DBB164F164917480197032635
:102FD0002B4601247822009607F0ECFA2A4630218D
:102FE000204688F8004007F009F8DFF84C802A46B0
:102FF000C8F800001821204607F000F80B4DD8F85B
:103000000020396828602046FDF780FE2A681821D4
:103010003046FDF761FE064B187002B0BDE8F08146
:10302000949AFF1FC00B0100492A0000889AFF1FD5
:10303000859AFF1F909AFF1F8C9AFF1F014B1878EB
:10304000704700BF909AFF1F054A064B12681A602E
:10305000054A12681A61054A12681A62704700BF71
:103060003088FF1FC89AFF1F3488FF1F3888FF1F52
:1030700007B54FF0FF3301AA1946184607F0E4FEE2
:10308000F7E7FFFF73B50E4D2C78BCB90D4E0E4916
:103090000E480196032300937822234607F08AFA0C
:1030A00022461421012006F0A9FF094B316818605F
:1030B00002460920FDF72AFE01232B7002B070BDE5
:1030C000EC9AFF1FF09AFF1FC90B0100713000003E
:1030D000F49AFF1F014B1878704700BFEC9AFF1F4E
:1030E00030B504460E4887B0002300681A4601A98F
:1030F00007F0DCF8012810D101AA234605AD1446DB
:1031000003CCAC4218605960224603F10803F6D1A3
:1031100020681860012007B030BD0020FBE700BF29
:10312000F49AFF1F80B51F4E1F4FDFF8888090B0C4
:103130004FF0FF336A461946184607F085FE01280E
:10314000F6D1009B032B13D0062BF1D11748002397
:1031500000681A4607A907F0A9F80128E8D107ACCA
:103160000FCC134D0FC50FCC0FC523682B60DFE7C5
:10317000002338681A4601A907F098F80128D7D12A
:103180000023194630684FF0FF3207F08FF8059B97
:10319000C8F80030002330681A46194606F052FF7E
:1031A000C6E700BF2C9BFF1FFC9AFF1FF89AFF1F6A
:1031B000089BFF1F009BFF1F2DE9F041394C3A4847
:1031C000DFF8F880394F3A4D3A4E152104F0D2FE1F
:1031D00060680CF0EFF938490CF0F4FAC8F8180000
:1031E000A0680CF0E7F934490CF0ECFAC8F81C00C0
:1031F000E0680CF0DFF930490CF0E4FAC8F8200080
:1032000020690CF0D7F92C490CF0DCFAB861606940
:103210000CF0D0F928490CF0D5FAF861A0690CF04F
:10322000C9F925490CF0CEFA3862A06A0CF0C2F94F
:1032300021490CF0C7FAA861E06A0CF0BBF91E49FD
:103240000CF0C0FAE861206B0CF0B4F91A490CF0EC
:10325000B9FA2862E0690CF0ADF917490CF0B2FA3E
:10326000B061206A0CF0A6F913490CF0ABFAF061DA
:10327000606A0CF09FF910490CF0A4FA0121306249
:10328000404604F076FD3846012104F072FD3046D8
:10329000012104F06EFD28460121BDE8F04104F053
:1032A00068BD00BF3897FF1FD60B0100609BFF1F52
:1032B0003C9BFF1F849BFF1F00007A44A89BFF1FBD
:1032C000F7B5012006F070FF364B3749186003262A
:1032D000364B0193782200233548009607F06AF9AF
:1032E000344D354935480195042300937822002355
:1032F00007F060F90124324B324F1C700022142178
:10330000204606F07BFE304B002218602421204628
:1033100006F074FE002238601821204606F06EFE8A
:103320002A4C3A68296820600620FDF7EFFC2268E5
:1033300029683046FDF7EAFC254B00221A70FDF79C
:1033400095FB0138234B04280CD8DFE800F022124B
:10335000030B1A00204A1A60204A5A60204A9A60D9
:10336000204ADA601B68984703B0BDE8F040FFF7D9
:1033700023BF1D4A1A601D4A9A601D4A5A601D4AA1
:10338000EFE71D4A1A601D4A9A601D4A5A601D4A9D
:10339000E7E71D4A1A601D4A5A601D4A9A601D4A95
:1033A000DFE700BF2C9BFF1FEC0B0100D09BFF1F32
:1033B00089360000E89BFF1FF20B01002531000059
:1033C000049BFF1FF89AFF1F309BFF1FFC9AFF1FF3
:1033D000349BFF1FD49BFF1F9D25000099250000F3
:1033E0002D260000012700006D5000003D51000017
:1033F00069500000255200006D4A0000814B00001A
:10340000694A00005D4C0000E1480000DD48000012
:10341000F948000005490000014B1878704700BFCB
:10342000049BFF1F10B5036886B004469B08C06864
:10343000ADF804300CF0EEFAADF80600A0680CF020
:10344000E9FAADF80A0020690CF0E4FA237D8DF862
:103450000C30637D8DF80D30A3690493E369059307
:10346000054BADF80800186820B10223002201A91D
:1034700006F0E8FD06B010BD309BFF1F054B187825
:1034800030B1054A127812B91A7001207047002035
:10349000704700BFE49BFF1F349BFF1F2DE9F04FD7
:1034A000B0F90230504C8BB081461846164607934F
:1034B0008A460CF07FF82168E568804630460CF0BB
:1034C000CDF86168074628460CF0C8F80146384632
:1034D0000BF0BCFF21690746A0680CF0BFF801465D
:1034E00038460BF0B3FF61690BF0B0FFE660256171
:1034F00060613E4C07462168D4F80CB030460CF0B1
:10350000ADF86168054658460CF0A8F80146284613
:103510000BF09CFF21690546A0680CF09FF801465E
:1035200028460BF093FF61690BF090FFC4F810B0D0
:10353000E66060610546BAF90800DFF8D0B00CF02B
:1035400039F8DBF8001004460BF07EFF079BCBF840
:103550000040642B064641DC283341DA244C2549DF
:1035600028460CF037FA00283CD1234928460CF0B5
:1035700013FA00B1204DFDF779FA00230A22014623
:103580001E4805F0F1F803211D4804F0F3FC204625
:103590000BF0B6FB0B46022102460091174805F0DE
:1035A000EFF8164805F0D3F809AB039308AB029384
:1035B00099F808300193134BCDF810A00096DE68FF
:1035C0002A463B4641462046B047089809990022C2
:1035D00000F0ACFE38460BB0BDE8F08F0A4CBEE7F9
:1035E0004446BCE7034DC6E73C9BFF1F849BFF1F7F
:1035F000000020C20000B4420000B4C2F80C002059
:10360000F60B0100D49BFF1F0000C842CC9BFF1F9C
:1036100070B5194D002388B00446194628684FF04C
:10362000FF3206F043FE154B28681E6800231A4639
:10363000194606F007FD00231A4631466846FDF795
:103640001FF904AA21466846FDF7BCF904A8FDF756
:10365000C7F90B490CF002F80BF052FB04A3D3E9B5
:1036600000230BF0CFFC0BF09BFE08B070BD00BF39
:10367000182D4454FB2109402C9BFF1F009BFF1F6A
:1036800000003443FFFFFFFF2DE9F04F8DB007F03E
:10369000ADF84FF47A71029002A807F083F94E4C0E
:1036A000237823B9642102A807F07CF9F8E7002702
:1036B000012400970025BB46DFF85481032102A8AE
:1036C00007F070F998F80060002E40F0A38043489E
:1036D00033460068324607A906F0E8FD012854D1B8
:1036E000BDF920403E4B88F80000187020460BF0D2
:1036F00061FFB42CBDF91C503A4C41DC20602668B7
:10370000394930460CF048F920B1384930460BF0C1
:103710009DFE206020680BF0F3FA2DA3D3E900236F
:103720000BF046FB324B00220BF06CFC0BF038FE2A
:103730005B460146002203A8FDF7A2F8BDF922006E
:1037400040430BF037FF2B4B18602B4B2B481A686C
:103750005F68009203F088F8294803F085F829484B
:1037600003F082F8284803F07FF89DF82540003CDC
:1037700018BF0124254B00219B68022098479BE736
:103780001A490BF061FE2060B9E7002CF2D10A9BC8
:103790005BB19847064640B11C4BADF81E40214630
:1037A0009B6802209847344686E7BDF91E30002BFF
:1037B000D8BF002303A8D8BFADF81E30FFF728FFFD
:1037C0000D49024607A8FFF769FE75E7AFF30080D1
:1037D000182D4454FB2109407097FF1F309BFF1F99
:1037E000E49BFF1F389BFF1F000034C30000B4435D
:1037F00000806640EC9BFF1F089BFF1F3C9BFF1F48
:10380000A89BFF1F849BFF1F609BFF1FD49BFF1F74
:10381000349BFF1F824B009918680BF015FE804BFC
:103820000646394658680BF00FFE31468146304651
:103830000BF014FF4946064648460BF00FFF0146C1
:1038400030460BF003FE814603A8FFF7E1FE9DF82A
:103850002430033B032B06461BD8724BD3F800A041
:10386000494650460CF0A2F898B198F8002082B171
:10387000002288F80020BDF922000BF09BFE514683
:103880000BF0E2FD0CF0C6F8002201B2104600F089
:1038900063FF0A9BEBB19847D8B10024019088F8E8
:1038A0000040BDF922000BF085FE5E4A11680BF066
:1038B000CBFD0CF0AFF8224601B2204600F04CFFE1
:1038C000594AADF81E402146926802209047019B5C
:1038D0001C4698F800304BB39DF82430072B25D1B7
:1038E000594630460CF076F8002840F08C8006F1FE
:1038F00000404FF07E510CF04FF8B8B1484B93F9AF
:103900001830002B12DA4FF0000ABDF9220088F8B7
:1039100000A00BF04FFE434B19680BF095FD0CF027
:1039200079F8524601B2504600F016FF9DF8243057
:10393000013D012B2DB220D1BDF91C30B5EB630F39
:103940001BDA98F80030002B3FF4B6AE4FF0000AB7
:10395000BDF9220088F800A00BF02CFE49460BF0C0
:1039600075FD0CF057F8524601B2504600F0F4FED7
:103970002D4B51469B680220984798F80030002B49
:103980003FF49AAE2649324607A8FFF787FD002D7F
:10399000BFF692AE98F80030002B3FF48DAE48464B
:1039A00007F0D0FF0646BDF922000BF003FE3146BA
:1039B0000BF04AFD4FF0000A0646504688F800A07A
:1039C000FEF792FBBDF922000BF088F912A3D3E9B0
:1039D00000230BF0EDF98046304689460BF090F954
:1039E00002460B46404649460BF068FC804630468E
:1039F000B8F1000F09D00CF00DF8524601B2504654
:103A000000F0AAFEB6E6304673E70CF003F8424633
:103A100001B20120F4E700BF666666666666E63FAF
:103A2000089BFF1FEC9BFF1FD49BFF1FFFFFFFFFA7
:103A30002DE9F04F97B006F0D9FE814C0490237821
:103A4000F3B1804FDFF8248200264FF0FF3303AA42
:103A50001946184607F0F8F90128F6D1039B013BF7
:103A6000042BF2D801A252F823F000BF8D3A0000D7
:103A70004B3A00001F3B00006D3B00007D3C000006
:103A80004FF47A7104A806F08DFFD8E76E48002342
:103A900000681A460AA906F009FC0128D5D14FF0A2
:103AA0007C510D98DFF8C8A1FCF7B4FD8146DAF827
:103AB00000000BF025F9044648460D460BF020F9AE
:103AC00059A3D3E900230BF073F902460B462046B5
:103AD00029460AF0B7FF0BF063FC5C49CAF8000006
:103AE0000B98DFF890A1FCF795FD8146DAF800000D
:103AF0000BF006F9044648460D460BF001F94AA3BF
:103B0000D3E900230BF054F902460B462046294620
:103B10000AF098FF0BF044FCCAF8000095E74C4807
:103B2000002300681A460AA906F0C0FB01288CD1C0
:103B30000D98DFF844910BF0E3F83DA3D3E900239F
:103B40000BF036F90446D9F800000D460BF0D8F812
:103B500002460B46204629460AF074FF0BF020FC73
:103B60003C4B0E9AC9F800001A606EE73A480023F1
:103B700000681A460AA906F099FB01287FF465AF90
:103B8000344B1C68204607F0A3FD8146204607F011
:103B9000DBFD83460A98314C0BF0B2F826A3D3E93B
:103BA00000230BF005F90BF0FBFB05460B980BF01F
:103BB000A7F821A3D3E900230BF0FAF80BF0F0FBF0
:103BC0002946824648460BF049FD51460190584629
:103BD0000BF044FD019B014618460BF037FC2169B0
:103BE0000BF034FC5946206105F100400BF036FD26
:103BF0005146834648460BF031FD014658460BF0CE
:103C000025FC61690BF022FC1549606128460BF028
:103C1000D9FD144B144AA060E0609A635A651A6794
:103C2000C3F88C2011E700BF7B14AE47E17AC43F94
:103C30008BE07F2BD9B1513FC1FF56B2632330BF18
:103C40007097FF1F00004040EC9DFF1FCDCCCC3D86
:103C5000E89DFF1FCC9EFF1FF89DFF1FC89DFF1F03
:103C600000000442109DFF1F0AD7A33B000080BF45
:103C7000009EFF1F049EFF1F9C9EFF1F4A480023BB
:103C800000681A460AA906F011FB01287FF4DDAE90
:103C9000DFF824A10AAC4FF000093546D4F800B093
:103CA000394658460BF096FEE8B9414658460BF0A7
:103CB00073FEC0B9594658460BF0D0FC05AB08342A
:103CC00043F8290014F8040C0BF074FC51460BF077
:103CD00079FD014628460BF0B9FB09F10109B9F15C
:103CE000050F0546DAD1DDF814B0314658460BF021
:103CF00049FE00287FF4A9AE069C314620460BF011
:103D000041FE00287FF4A1AEDDF81CA031465046EC
:103D10000BF038FE00287FF498AEDDF82090314695
:103D200048460BF02FFE00287FF48FAE6FF03F4126
:103D300058460BF08BFB21460BF086FB1B490BF022
:103D400041FD1B490BF08AFC6FF03F410446504691
:103D50000BF07CFB49460BF077FB1449DFF85CA0C5
:103D60000BF030FD12490BF079FC01464FF080401A
:103D70000BF06AFB0146814620460BF067FB4FF0D3
:103D80007C510BF06BFC4946CAF8000020460BF052
:103D90005BFB4FF07C510BF061FC064BCAF8040052
:103DA0001D60DD6151E600BFF49DFF1FF304B540C7
:103DB000F304B53F109DFF1F00002042C89DFF1F68
:103DC0002DE9F047DFF81C91DFF81CA1384FD9F836
:103DD0000000384EDFF81481374D002300241946C7
:103DE0004FF0FF3206F062FAFEF7E0FD5146204642
:103DF000102204F083F939462046102204F07EF99F
:103E000031462046182204F079F941462046102216
:103E100004F074F920462949042204F06FF9294678
:103E20002046242204F06AF920462549062204F09F
:103E300065F920462349062204F060F94FF07E53CD
:103E4000CAF80030CAF81430CAF82830CAF83C3032
:103E500033607361B362F363336473651A4BC8F8FC
:103E60002830C8F83C30194B3B607B61BB62FB6378
:103E7000174B2B60EB61AB636B652B67C5F88C3020
:103E8000144B154A1C609C60DC605C60134BD9F8D5
:103E900000001C60124BC8F800401C600023137027
:103EA000C8F814401A46BDE8F047194606F0CAB8EB
:103EB000909CFF1F309CFF1F109DFF1FBC9EFF1F8B
:103EC000C89DFF1FB09DFF1F0000C842CDCCCC3E57
:103ED00000007A44A09DFF1FFC9DFF1F009EFF1F56
:103EE000049EFF1FE49DFF1FF09BFF1FD09CFF1F40
:103EF00010B5012006F058F9214C224B1860FFF74D
:103F00005FFF04F14000204B0422062102F028FC50
:103F10000422114604F110001C4B02F021FC04F1B4
:103F200008001B4B0122042102F01AFC2046194B09
:103F30000122042102F014FC0422114604F12000A5
:103F4000154B02F00DFC0422114604F12800134B1E
:103F500002F006FC0622114604F13000104B02F07C
:103F6000FFFB04F15800012206210E4B02F0F8FB82
:103F700020460622BDE810400421FEF7FFB900BF2D
:103F8000089EFF1FE49DFF1F309CFF1FF09BFF1F3B
:103F9000BC9EFF1FA09DFF1F909CFF1FD09CFF1F7A
:103FA000109DFF1FB09DFF1F2DE9F74F474A00905E
:103FB00014680191204607F08BFB454EDFF834B1C1
:103FC0008046204607F0C0FBD6F8089041490446D9
:103FD00048460BF043FB40490BF0F4FB3D490546D6
:103FE000F0680BF03BFB3C490BF0ECFB29468246AA
:103FF00040460BF033FB5146074620460BF02EFBA4
:10400000014638460BF022FA31680BF01FFA2146C0
:104010000746CBF8000005F100400BF01FFB5146AE
:10402000054640460BF01AFB014628460BF00EFAF7
:1040300071682A4D0BF00AFA0099CBF80400064685
:1040400048460BF003FA019BCBF80800194682465C
:1040500048460BF0FBF92249CBF80C00814640465C
:104060000BF0FCFA1F49A860804620460BF0F6FAD8
:104070001B49E86020460BF0F1FAC5F81C80A861E6
:10408000194D1A4C286939460BF0DEF9314620618A
:1040900068690BF0D9F93946606128680BF0D4F9EA
:1040A0003146206068680BF0CFF951466060A8681F
:1040B0000BF0CAF94946A060E8680BF0C5F9E0606A
:1040C0000B4803B0BDE8F04FFEF7EFB9CC9EFF1FE1
:1040D000BC9EFF1F0000204100007A44F09BFF1FA0
:1040E0000AD7233C0AD723BCC89DFF1FB09DFF1FE2
:1040F000089EFF1FA09DFF1F2DE9F04F8DB006F019
:1041000075FB734C0290237823B90A2102A806F0AC
:1041100049FCF8E700266F4DDFF804B2B24634469A
:104120000A2102A8DFF8FC916B4FDFF8FC8106F052
:1041300039FC002319464FF0FF32D9F8000006F091
:10414000B5F8664B3A681868D8F80010FFF72CFFEE
:104150006348FEF7CBF9002800F08580FCF780FC6F
:104160002B688DF81E005946184600930BF076FA1E
:104170006A6803905946104601920BF06FFA009B53
:104180000490194650460BF05FF9019A00901146D1
:1041900030460BF059F9009B8246194618460BF041
:1041A0005DFA5146064650460BF058FA0146304635
:1041B0000BF04CF907F0C6FB4A49D5F800A06E6831
:1041C0000BF04CFA48490BF0FDFA0BF023FC474B7F
:1041D0004749ADF8140018680BF040FA0AF090FD5A
:1041E00037A3D3E900230AF00DFF0BF091F8ADF8E7
:1041F0001C00FDF76DFF8DF82000FDF76FFF8DF8B7
:104200002100FDF777FFADF81800FDF779FF3B6857
:10421000ADF81A000021184600930BF0DBFB009B61
:1042200008B903F1004318460AF06AFD26A3D3E952
:1042300000230BF043F89DF82430003818BF01200C
:1042400060F3C7132B488DF8243000220223006846
:10425000ADF8282003A98DF8232005F0F3FE264BA6
:104260001878FCF781FD00231A461946D9F800009A
:1042700005F0E8FE214B224A1C60184B3C601C6094
:10428000002313701F4AC8F8004013701E4A1460C0
:104290001E4A14601E4A13701E4B2A681A606A6810
:1042A0005A609C60DC601C4B1C4A1A60DA619A639D
:1042B0005A651A67C3F88C2032E700BFAFF300805D
:1042C000182D4454FB210940FCA9F1D24D62503F06
:1042D0007097FF1FBC9EFF1F9C9EFF1F009EFF1F2D
:1042E000089EFF1F00007A4400002041CC9EFF1F63
:1042F00000003443E09DFF1FB49EFF1FB89EFF1FC8
:10430000FC9DFF1FA49EFF1FA89EFF1FAC9EFF1FCA
:10431000989EFF1FC89DFF1F109DFF1F00401C4659
:104320000000C842E49DFF1F049EFF1F70B50C4EA5
:104330000D460146306814460BF088F83060094E8F
:1043400029463068084D0BF081F8084A3060137830
:1043500028680133137021460BF078F8286070BD8F
:10436000A89EFF1FAC9EFF1FB89EFF1FA49EFF1FAD
:104370002DE9F7432C4E3478002C51D12B4D2C498C
:104380002C480195042300937822234606F012F965
:104390004FF00308284B29490193782223462848E7
:1043A000CDF8008006F006F9FFF7A2FD224618219D
:1043B000012005F023FEDFF8A090224FC9F800008D
:1043C00022462821012005F019FE1F4B22461860C5
:1043D0000821012005F012FE1C4B22461860242102
:1043E000012005F00BFE224638603021012005F047
:1043F00005FE174CD9F80020296820604046FCF7DC
:1044000085FC226829680120FCF780FC3A68242199
:104410000620FCF761FC0F4B187008B101233370C4
:1044200003B0BDE8F08300BFF09DFF1FB09EFF1FEB
:10443000FA0B0100313A0000A09EFF1F000C0100A2
:10444000F9400000E09DFF1FF49DFF1FF89DFF1F36
:10445000EC9DFF1FB49EFF1FE89DFF1F014B1878C6
:10446000704700BFF09DFF1F034B2422013802FB61
:10447000003000F5D8707047D49EFF1F30B50B4652
:10448000D822897C5043242212FB0100074A03F101
:104490002005024418685968144603C40833AB4227
:1044A0002246F7D11868206030BD00BFD49EFF1FA0
:1044B0000D4B10B51C78B4B90120187005F074FECE
:1044C0000A4B21461860D82209480CF04DF82146C5
:1044D000D82208480CF048F821460748BDE81040AB
:1044E000D8220CF041B810BDD09EFF1F5CA1FF1F69
:1044F000D49EFF1FAC9FFF1F84A0FF1F014B1878A5
:10450000704700BFD09EFF1F2DE9F0411E4F0023D2
:1045100038684FF0FF32194605F0C8FE012830D147
:1045200000251A4BAC461E4603F5D87203F1200E47
:10453000344603CC744510605160264602F10802EF
:10454000F6D1206810601C4603F1D80203F1F80E82
:1045500010685168264603C6083272453446F7D1C2
:10456000013510683060062D83F8EAC003F124039A
:10457000D9D1002338681A46BDE8F041194605F044
:1045800061BDBDE8F08100BF5CA1FF1FD49EFF1F8D
:1045900080B5194E194FDFF8708090B04FF0FF339F
:1045A00001AA1946184606F04FFC0128F6D1019BD6
:1045B000062B10D00D2BF1D1002338681A4602A922
:1045C00005F074FE0128E9D1D8F80C300C4A0D49E9
:1045D00002A89847E2E7002330681A4607A905F0C9
:1045E00065FE0128DAD107AC0FCC064D0FC50FCC04
:1045F0000FC523682B60D1E760A1FF1F7CA1FF1FBF
:1046000064A1FF1F88A1FF1FBCA1FF1FF7B5194FB1
:10461000194E1A4D386801A900234FF0FF3205F0FA
:1046200045FE0F2003F00CFDC92003F009FD042016
:1046300003F006FD9DF80440204603F001FD9DF8BF
:104640000500044403F0FCFC9DF80600E4B20444B9
:1046500003F0F6FC9DF80700E4B20444E4B203F072
:10466000EFFC204603F0ECFC31462846FBF714FF34
:10467000D0E700BF80A1FF1F070C0100F80C00204D
:10468000F7B5244B244C01930325244900950023BE
:1046900078222348234F244E05F08CFF0023CDE9D8
:1046A000005422492248782205F084FF002212217A
:1046B000012005F0A3FC002238602421012005F030
:1046C0009DFC3A68216830600D20FCF71FFB3268C2
:1046D000216806200024FCF719FB2346CDE900548D
:1046E00014491548782205F065FF2246042101206F
:1046F00005F084FC114B1860114B01221A70114B0C
:10470000114A1A60114A5A60114A9A60114ADA60D5
:1047100003B0F0BDCCA1FF1FB8A1FF1F090C010021
:10472000154800007CA1FF1F60A1FF1F0C0C0100B9
:10473000914500000F0C01000D46000080A1FF1FF5
:1047400064A1FF1FBCA1FF1F1156000025560000E9
:10475000655600000D5600007047FFFF044B054AE8
:10476000196811605A68044B1A60044B188070472E
:1047700088A1FF1FB0A1FF1FB4A1FF1F78A1FF1FD9
:104780001D4BB3F9103010B518440AF013FF1B4944
:1047900004460BF01FF920B1204619490AF054FED7
:1047A0000446184920460BF0F7F820B1204614497A
:1047B0000AF04CFE044620460BF02CF9124B1880F0
:1047C00020460AF09DFA0AA3D3E900230AF0F0FA82
:1047D0000E4B00220AF016FC0AF0E2FD002301460F
:1047E000BDE810400A481A46FCF74AB8AFF300800B
:1047F000182D4454FB21094088A1FF1F00003443B9
:104800000000B443000034C3ACA1FF1F0080664029
:1048100068A1FF1FBFB500234FF47A72CDE90123D1
:10482000CDE90433264B274D1B68274C0122ADF8F8
:104830000C20984705F0DAFF00902B7833B3234D16
:10484000234F4FF0010800260121684606F0AAF820
:104850002378ADF80660ADF80A60ADF80C800496D8
:10486000002BF1D12B6801332B604FF00103237033
:104870003B78C3B9FFF7A4FA2B68B3F5FA6F01D9F7
:1048800087F8008001A8FDF7ABFCDCE70121684652
:1048900006F088F82378002BCFD1012301A82370DC
:1048A000FDF79EFCC9E701A8FEF71AFCBDF80A0057
:1048B000FFF754FFBDF90800FFF762FFE2E700BF12
:1048C000BCA1FF1F7097FF1FAEA1FF1F84A1FF1F98
:1048D00064A1FF1F0368C9B21B6818477047FFFF38
:1048E00008B542F2107001F0D1FC024B02221A60AE
:1048F00008BD00BF3C88FF1F014B1860704700BF18
:104900003C88FF1FF8B5264F3B68032B044616462C
:1049100014D0042B3ED0012B0DD100210BF05AF8FE
:1049200008B904F1004420461E490BF035F8022571
:10493000044668B13D6000245A2509E01A490AF08E
:1049400085FD0BF067F8054630460BF063F804462A
:104950000621164803F00EFB0A9B1548B3F9081010
:1049600003F0EDFE124803F0F2FE23211148FFF799
:10497000B1FFE9B20F48FFF7ADFFE1B20D48FFF715
:10498000A9FF3B210B48FFF7A5FF00210948FFF7CE
:10499000A1FFF8BD014604480AF056FDD1E700BF6B
:1049A0003C88FF1F000040400000B442150C01008D
:1049B000F80C0020100D00202DE99F48DFF8A080A2
:1049C000244F00264FF0FF3301AA1946184606F07F
:1049D0003BFA0128F6D1002338681A4602A905F0EF
:1049E00065FC0128EED198F800301B4CDFF874A06C
:1049F000053B012B27D8216802980AF027FD20608B
:104A0000164C2168D4F80C9005460AF027FE616820
:104A1000834648460AF022FE014658460AF016FD33
:104A200021698346A0680AF019FE014658460AF03B
:104A30000DFD61690AF00AFDC4F81090E56060613F
:104A4000CAF80000BEE705482660CAF8006001F019
:104A50000BFFB7E7E0A1FF1FDCA1FF1FE4A1FF1FD1
:104A6000D0A1FF1FD4A1FF1F7047FFFF37B51D4C1A
:104A700000252078012102F0E3FC6078012102F09A
:104A8000DFFC2078002102F0BBFC013560780021BA
:104A900002F0B6FC042D04F10304EAD11248134BD2
:104AA00083610023C3610121114B124C036203F0A7
:104AB00060F90323009310490194002378220F48E2
:104AC00005F078FD00220821012005F097FA0C4B33
:104AD000216818600246284603B0BDE83040FCF764
:104AE00015B900BF4088FF1FE4A1FF1F8FC2753DAD
:104AF00017B7D138D8A1FF1F1C0C0100B94900001D
:104B0000E0A1FF1F013810B50C46032837D8DFE8B5
:104B100000F02C0214222078002102F0CBFC0021AE
:104B2000607802F0C7FC0121207802F069FC0121C5
:104B30006078BDE8104002F063BC8978207802F00C
:104B4000B9FC0021607802F0B5FC0121207802F068
:104B500057FC0021ECE72078002102F0ABFCA178A3
:104B6000607802F0A7FC0021DEE72078002102F047
:104B7000A1FC0021607802F09DFC0021E6E710BD59
:104B8000013808B505285FD8DFE800F04F03152489
:104B900033412E490220FFF7B5FF2D490220FFF7D0
:104BA000B1FF2C490220FFF7ADFF2B490220BDE8E1
:104BB0000840FFF7A7BF25490320FFF7A3FF2449BB
:104BC0000320FFF79FFF23490320FFF79BFF2249A4
:104BD0000320ECE71D490420FFF794FF1C49042043
:104BE000FFF790FF1B490420FFF78CFF1A490420B0
:104BF000DDE718490420FFF785FF15490320FFF77B
:104C000081FF15490320FFF77DFF1049EFE71249A7
:104C10000420FFF777FF0D490320FFF773FF0C49CE
:104C20000420FFF76FFF0B49D2E708490120FFF787
:104C300069FF07490120FFF765FF06490120FFF7DB
:104C400061FF05490120B2E708BD00BF4088FF1F92
:104C50004388FF1F4688FF1F4988FF1F2DE9F04F3B
:104C600087B01E469DF84450AD4BAE4C1D70AB1E38
:104C7000DDE912988A461746052B07D8DFE813F0BE
:104C80002C007900B3006601DE003B0000212846BD
:104C9000A17061712172E172FFF772FF6079A378F0
:104CA0000344207A0344E07A18440AF083FC4FF06E
:104CB0007A510AF0D3FC0023042DC8F80030C9F85B
:104CC000003000F2B681022D40F2B68196490AF01A
:104CD000C5FCC9F80000AFE192490220FFF712FFBE
:104CE00092490220FFF70EFF91490220FFF70AFFC9
:104CF000904902203AE0002138460AF06BFEF8B9EC
:104D000007F100408C490AF0A1FB0AF083FEC0B213
:104D1000A07060712072E072884938460AF05AFE2D
:104D200080B180490320FFF7EDFE82490320FFF7A1
:104D3000E9FE7E490420FFF7E5FE7D49042015E0E9
:104D40003846DFE77E4938460AF026FE75490028D6
:104D5000C3D00420FFF7D6FE76490420FFF7D2FE29
:104D600072490320FFF7CEFE71490320FFF7CAFE08
:104D700094E7744B93F901700AF04CFE193747FA27
:104D800080F00AF017FC314682460AF05FFB0AF019
:104D900041FE31460746029050460AF055FB0AF0A4
:104DA00039FECDE903004FF0000B5E4E0597DA4661
:104DB00002AF57F8043B182B0DDC86F802A03146F1
:104DC00002200BF1010BFFF79DFEBBF1040F06F172
:104DD0000306EED162E7DBB2C82BA8BFC823B370CD
:104DE00031460320EDE7574B93F901600AF012FEBC
:104DF000193606FA80F0CDE90200CDE904004FF043
:104E0000000B484E02AFDA4657F8043B182B0DDC76
:104E100086F802A0314602200BF1010BFFF772FE6B
:104E2000BBF1040F06F10306EED137E7DBB2C82B66
:104E3000A8BFC823B37031460420EDE7414B93F976
:104E4000000023300AF0B6FB51460AF0FFFA314663
:104E500082460AF0F9FA3C4B1F68394683460AF04D
:104E6000F3FA0AF0D7FD3946ADF8080058460AF0C3
:104E7000EDFA0AF0CFFD3146ADF80A0050460AF0CF
:104E8000E5FA394606460AF0DFFA0AF0C3FD314674
:104E9000ADF80C0038460AF0D9FA0AF0BBFD214AF9
:104EA000ADF80E00002001A902AB01274FF0C80C9D
:104EB000864633F9026B01F8017B222E24DC01F8CF
:104EC00001EC013033F8026C9670042802F1030201
:104ED000EFD19DF904301349DBB1FFF713FE9DF9C3
:104EE00005301249BBB10320FFF70CFE9DF90630D7
:104EF0000F4993B10420FFF705FE9DF907300D49D6
:104F0000002B3FF4F6AE30E7C82EC8BF23F802CC22
:104F1000D7E70220E1E70220E6E70220EBE700BF47
:104F2000D0A1FF1F4088FF1FFA7E2A3F4388FF1F42
:104F30004688FF1F4988FF1F000082420000404052
:104F4000000040C03897FF1FD4A1FF1F3F4B93F9CB
:104F5000000023300AF02EFB51460AF077FA314662
:104F600082460AF073FA3A4B1F68394683460AF0C4
:104F70006DFA0AF04FFD3946ADF8080058460AF0C0
:104F800063FA0AF047FD3146ADF80A0050460AF0D0
:104F90005BFA0146064638460AF058FA0AF03AFD2E
:104FA0003946ADF80C0030460AF04EFA0AF032FDF0
:104FB00000232849ADF80E0002AA01A801274FF0EE
:104FC000C80C9E4632F9026B00F8017B222E25DCCC
:104FD00000F801EC013332F8026C8E70042B01F101
:104FE0000301EFD19DF904301A49E3B10320FFF723
:104FF00089FD9DF905301849BBB10420FFF782FDFA
:105000009DF90630154993B10320FFF77BFD9DF90B
:1050100007301349002B3FF46CAE8FE6C82EC8BF93
:1050200022F802CCD6E70220E1E70220E6E70220E0
:10503000EBE7053D012D02D907B0BDE8F08F094926
:105040000AF00CFBC8F80000F6E700BF3897FF1F16
:10505000D4A1FF1F4088FF1F4388FF1F4688FF1F02
:105060004988FF1FFA7E2A3F7047FFFF38B5114C71
:1050700000252078012102F0E3F96078012102F097
:10508000DFF92078002102F0BBF9013560780021BA
:1050900002F0B6F9042D04F10304EAD10648074BE7
:1050A00083610023C36103620121BDE8384002F03F
:1050B00060BE00BF4C88FF1F08A2FF1F0000A04079
:1050C000013810B50C46032837D8DFE800F02C0271
:1050D00014222078002102F0EDF90021607802F01E
:1050E000E9F90121207802F08BF901216078BDE80F
:1050F000104002F085B98978207802F0DBF90021B0
:10510000607802F0D7F90121207802F079F90021C6
:10511000ECE72078002102F0CDF9A178607802F068
:10512000C9F90021DEE72078002102F0C3F900214F
:10513000607802F0BFF90021E6E710BD013808B53C
:10514000062863D8DFE800F0530419283745140017
:105150002F490220FFF7B4FF2E490220FFF7B0FFCE
:105160002D490220FFF7ACFF2C490220FFF7A8FFD2
:10517000BDE808402A4801F077BB25490320FFF726
:105180009FFF24490320FFF79BFF23490320FFF7DC
:1051900097FF22490320E9E71D490420FFF790FF0C
:1051A0001C490420FFF78CFF1B490420FFF788FFF0
:1051B0001A490420DAE718490420FFF781FF15494E
:1051C0000320FFF77DFF15490320FFF779FF104902
:1051D000EFE712490420FFF773FF0D490320FFF7A3
:1051E0006FFF0C490420FFF76BFF0B49D2E708491A
:1051F0000120FFF765FF07490120FFF761FF06491E
:105200000120FFF75DFF05490120AFE708BD00BFA2
:105210004C88FF1F4F88FF1F5288FF1F5588FF1FB4
:1052200008A2FF1F2DE9FF479DF83460BB4C1D46C7
:10523000F31EDDE90E78042B21D8DFE813F05300CC
:105240005A01ED008B0005005023A3706371237297
:10525000E372002128460AF0BDFBA0BBAF49042041
:10526000FFF72EFFAE490420FFF72AFFAD490320C8
:10527000FFF726FFAC490320FFF722FF07E00021DC
:10528000A17061712172E1723046FFF757FF6079BA
:10529000A3780344207A0344E07A18440AF08AF998
:1052A0004FF07A510AF0DAF90023042EC8F80030E2
:1052B0003B6000F21281022E40F212819B490AF0FB
:1052C000CDF938600CE195490320FFF7F9FE9449C8
:1052D0000320FFF7F5FE93490420FFF7F1FE924902
:1052E0000420C9E70AF096FB40B24B300AF062F99D
:1052F000294682460AF0AAF80AF08CFB29460FFAE2
:1053000080F95046ADF808900AF09EF80AF082FB4A
:105310008249ADF80E9000B2ADF80A00ADF80C006D
:1053200002AB00224FF4FA6C012533F9020B00287E
:105330000BDC23F8025C013233F8020C8870042A7B
:1053400001F10301F1D100219EE7C828C8BF23F86D
:1053500002CCF0E70AF05EFB40B250300AF02AF9C6
:10536000294681460AF072F80AF054FB294603B236
:105370004846ADF80830ADF80A300AF065F80AF092
:1053800049FB00B2ADF80C00ADF80E00634A0020F6
:1053900001AD02A94FF0010C4FF0C80E814631F962
:1053A000023B05F801CB3B2B28DCBDF9083005F8A2
:1053B000019C3C3B23EAE373503393700130042893
:1053C00002F10302EBD19DF904305449F3B1FFF728
:1053D00077FE9DF907305249D3B10320FFF770FEE5
:1053E0009DF905304F49ABB10320FFF769FE9DF9E8
:1053F00006304D49002B3FF43EAF71E7C82BC8BFC4
:1054000021F802EC31F8023C9370D7E70320DEE785
:105410000420E3E70420E8E70AF0FCFA40B2503049
:105420000AF0C8F8294681460AF00EF80AF0F2FAA6
:10543000294603B24846ADF80830ADF80A300AF004
:1054400005F80AF0E7FA00B2ADF80C00ADF80E006E
:10545000324A002001AD02A94FF0010C4FF0C80EF6
:10546000814631F9023B05F801CB452B29DCBDF91A
:10547000083005F8019C463B23EAE37350339370F0
:105480000130042802F10302EBD19DF904302349D5
:1054900003B10320FFF714FE9DF907302049C3B183
:1054A0000420FFF70DFE9DF905301E499BB1042035
:1054B000FFF706FE9DF906301B49002B3FF410AFA5
:1054C000D9E6C82BC8BF21F802EC31F8023C937032
:1054D000D6E70320E5E70320EAE7053E012E02D9DF
:1054E00004B0BDE8F08711490AF0B8F8C8F8000028
:1054F000F6E70AF08FFA40B24B300AF05BF8294623
:10550000824609F0A1FF0AF085FA29460FFA80F9D0
:105510005046ADF8089009F099FFF7E64C88FF1F58
:105520005588FF1F4F88FF1F5288FF1FFA7E2A3FB2
:105530002DE9F041DFF86C80194E8AB04FF0FF334F
:1055400001AA1946184605F07FFC0128F6D1002370
:10555000D8F800001A4602A904F0A8FE0128EDD1EF
:1055600000249DF80A30E5B2AB4214D90AAB5F19AA
:105570000A2217F81D1C0023304603F0F5F83046C8
:1055800003F0E5F8BDF9080017F81D1C284401F0E8
:1055900049F90134E5E7FBF787FAFDF70DFECDE7A2
:1055A000F80C00202CA2FF1F73B50F4E3478CCB935
:1055B0000E4D0F49019503230093782223460D4891
:1055C00004F0F8FF224601202021307004F016FD7F
:1055D000094B2968186002460B2002B0BDE87040F4
:1055E000FBF794BB02B070BD30A2FF1F34A2FF1FB7
:1055F000250C0100315500002CA2FF1F014B18782B
:10560000704700BF30A2FF1F01F0B6B800207047FE
:1056100008B5012004F0C8FD014B186008BD00BFAB
:1056200038A2FF1F70B50E4C0023154606464FF0FA
:10563000FF322068194604F039FE022D09D0332DBF
:105640000AD0002320681A46194604F0FBFC00200B
:1056500070BDFFF743F9F4E74FF481733381F0E74E
:1056600038A2FF1F38B51A4D00230C46286819468A
:105670004FF0FF3204F01AFE2378322B21D00BD8E2
:10568000012B10D0022B19D0002328681A46194686
:1056900004F0D8FC002038BD332BF5D13223237021
:1056A000C8220C4B12E00B4A1368002BDBBF3223DD
:1056B000237003F1FF330A231360E5E732232370DD
:1056C000E2E733232370034B41F288321A60DBE7B1
:1056D00038A2FF1F5888FF1FF0B50C4C0C4E2378E2
:1056E0000C4D43F0020706EBC70283F00103506044
:1056F0002A782370002A14BFC820882040EA01407D
:1057000082F0010246F837002A70F0BDBCA2FF1FEC
:105710000080FF1FBDA2FF1F431E032B10B510D832
:1057200072B6094A52F8230048B1416842F8231082
:105730000649048831F81320121B21F8132062B6A1
:1057400010BD0020FCE700BFCCA2FF1F080F002007
:10575000013803280AD872B6054B53F820300020D0
:105760000BB962B670475B680130F9E700207047FB
:10577000F4A2FF1F30B472B6174C184A042314F871
:10578000011B09071DD552F8331069B902EBC3019B
:1057900008304860124942F83310124A1378013B2E
:1057A000137062B630BC704743F0010152F83150BB
:1057B0003DB902EBC103083058600B4B42F8313061
:1057C000EBE70433142BDAD162B6064B00221A70D1
:1057D00030BC00F0BBBB00BF800C01000080FF1F8D
:1057E000880040001AA3FF1FC8004000421E032A81
:1057F00010B52CD8194B400140F01000034472B68C
:105800001748845C032C18D8DFE804F02611021432
:10581000052413F0080F845401F1080209885A6026
:1058200014BFC822882242EA01421A600EE00833FF
:105830000224EEE708330424EBE70A480A4B50F849
:1058400022402CB940F8221043F8221062B610BD55
:1058500053F822004160F7E70324DAE70080FF1FD6
:1058600014A3FF1FF4A2FF1F04A3FF1F2DE9F04F95
:10587000AE4E85B0AD4B1B785907DCB219D5AC4B99
:105880001B78A3B1AB4A117801F0FF0321B1013BB2
:10589000DBB2137003B900BEA74A117801F0FF0311
:1058A00029B1013BDBB213700BB902F003FC0423F6
:1058B000337014F0080200F07A82A04BA04D1F78DC
:1058C0003C09FBB24FEA970740F0F78155F83730B3
:1058D00005EBC702C3F38303092B526800F0CA81AA
:1058E00009D8013B012B40F2A581964B01221A7089
:1058F00008233370BEE70D2BF7D1934B1068526825
:1059000018605A60914B45F83730914B91491C60B3
:1059100001230B7040F2816781B2B9422C61AC6106
:105920001AD8B1F5D06F80F06681B1F5817F00F0B3
:105930003F8107D8802900F0EB80822900F0EE80BB
:10594000854BEFE040F20233994200F03F81B1F520
:10595000A06FF5D100234CE142F22102914200F008
:105960003E8145D8B1F5086F00F0CD80B1F5106FDC
:10597000E6D16F4A724FC0F3074313703C464FF0B5
:105980000408236A1A0603D5606A083800F0DEFAB4
:1059900008F10108B8F1140F04F10804F1D16F4BBC
:1059A0000293DFF8D8816E4BDFF8D491DFF8D4A1F1
:1059B000DFF8D4B1019358F8040B10BB019BDAF85F
:1059C000004043F8040B48F8040C0193F4B9029B1F
:1059D00099F8001023F8024B02394AF8044B4BF8AF
:1059E000044B029303291DD8DFE801F0187B187BD4
:1059F00042F22123994200F0148142F2213399426C
:105A0000A7E7446800F0A2FA2046D6E76168039150
:105A1000204600F09BFA03990C46D7E74FF00003AD
:105A200089F800304F4B984509F10109C3D14E4B1D
:105A3000DFF85891DFF8588100221A709B4618F859
:105A4000011B09F8041BDFF84CA10B07CA4415D54C
:105A500000F05EFA002847D0444939620830786285
:105A600000F056FA4AF00101002844D0374B45F8BF
:105A7000313005EBC10C0830CCF804004AF00303C8
:105A80004AF00200002145F8301045F83310384B39
:105A9000994507F12007D2D10B462B4AD7889F4260
:105AA00028BF1F46402F3946204628BF4021FFF718
:105AB00013FE7D1A0C4402D13F2F40F29080402DFE
:105AC0002946204628BF4021FFF706FE0C44691AEC
:105AD00002D13F2D40F283801D4B1C60254B198065
